{
  "contractName": "AttendanceSystem",
  "abi": [
    {
      "inputs": [],
      "stateMutability": "nonpayable",
      "type": "constructor"
    },
    {
      "anonymous": false,
      "inputs": [
        {
          "indexed": false,
          "internalType": "uint256",
          "name": "classId",
          "type": "uint256"
        },
        {
          "indexed": true,
          "internalType": "address",
          "name": "user",
          "type": "address"
        },
        {
          "indexed": false,
          "internalType": "bool",
          "name": "isPresent",
          "type": "bool"
        },
        {
          "indexed": false,
          "internalType": "uint256",
          "name": "timestamp",
          "type": "uint256"
        }
      ],
      "name": "AttendanceMarked",
      "type": "event"
    },
    {
      "anonymous": false,
      "inputs": [
        {
          "indexed": false,
          "internalType": "uint256",
          "name": "classId",
          "type": "uint256"
        },
        {
          "indexed": false,
          "internalType": "string",
          "name": "name",
          "type": "string"
        },
        {
          "indexed": false,
          "internalType": "address",
          "name": "teacher",
          "type": "address"
        }
      ],
      "name": "ClassCreated",
      "type": "event"
    },
    {
      "anonymous": false,
      "inputs": [
        {
          "indexed": false,
          "internalType": "uint256",
          "name": "classId",
          "type": "uint256"
        },
        {
          "indexed": false,
          "internalType": "address",
          "name": "student",
          "type": "address"
        }
      ],
      "name": "StudentAdded",
      "type": "event"
    },
    {
      "inputs": [],
      "name": "classCount",
      "outputs": [
        {
          "internalType": "uint256",
          "name": "",
          "type": "uint256"
        }
      ],
      "stateMutability": "view",
      "type": "function",
      "constant": true
    },
    {
      "inputs": [
        {
          "internalType": "uint256",
          "name": "",
          "type": "uint256"
        }
      ],
      "name": "classes",
      "outputs": [
        {
          "internalType": "string",
          "name": "name",
          "type": "string"
        },
        {
          "internalType": "address",
          "name": "teacher",
          "type": "address"
        }
      ],
      "stateMutability": "view",
      "type": "function",
      "constant": true
    },
    {
      "inputs": [],
      "name": "owner",
      "outputs": [
        {
          "internalType": "address",
          "name": "",
          "type": "address"
        }
      ],
      "stateMutability": "view",
      "type": "function",
      "constant": true
    },
    {
      "inputs": [
        {
          "internalType": "string",
          "name": "_name",
          "type": "string"
        }
      ],
      "name": "createClass",
      "outputs": [],
      "stateMutability": "nonpayable",
      "type": "function"
    },
    {
      "inputs": [
        {
          "internalType": "uint256",
          "name": "_classId",
          "type": "uint256"
        },
        {
          "internalType": "address",
          "name": "_student",
          "type": "address"
        }
      ],
      "name": "addStudent",
      "outputs": [],
      "stateMutability": "nonpayable",
      "type": "function"
    },
    {
      "inputs": [
        {
          "internalType": "uint256",
          "name": "_classId",
          "type": "uint256"
        },
        {
          "internalType": "bool",
          "name": "_isPresent",
          "type": "bool"
        }
      ],
      "name": "markAttendance",
      "outputs": [],
      "stateMutability": "nonpayable",
      "type": "function"
    },
    {
      "inputs": [
        {
          "internalType": "uint256",
          "name": "_classId",
          "type": "uint256"
        },
        {
          "internalType": "address",
          "name": "_student",
          "type": "address"
        }
      ],
      "name": "getAttendanceCount",
      "outputs": [
        {
          "internalType": "uint256",
          "name": "",
          "type": "uint256"
        }
      ],
      "stateMutability": "view",
      "type": "function",
      "constant": true
    },
    {
      "inputs": [
        {
          "internalType": "uint256",
          "name": "_classId",
          "type": "uint256"
        },
        {
          "internalType": "address",
          "name": "_student",
          "type": "address"
        },
        {
          "internalType": "uint256",
          "name": "index",
          "type": "uint256"
        }
      ],
      "name": "getAttendanceRecord",
      "outputs": [
        {
          "internalType": "bool",
          "name": "",
          "type": "bool"
        },
        {
          "internalType": "uint256",
          "name": "",
          "type": "uint256"
        }
      ],
      "stateMutability": "view",
      "type": "function",
      "constant": true
    },
    {
      "inputs": [
        {
          "internalType": "uint256",
          "name": "_classId",
          "type": "uint256"
        },
        {
          "internalType": "address",
          "name": "_student",
          "type": "address"
        }
      ],
      "name": "isStudentInClass",
      "outputs": [
        {
          "internalType": "bool",
          "name": "",
          "type": "bool"
        }
      ],
      "stateMutability": "view",
      "type": "function",
      "constant": true
    },
    {
      "inputs": [],
      "name": "getTotalClasses",
      "outputs": [
        {
          "internalType": "uint256",
          "name": "",
          "type": "uint256"
        }
      ],
      "stateMutability": "view",
      "type": "function",
      "constant": true
    }
  ],
  "bytecode": "0x6080604052600060025534801561001557600080fd5b50336000806101000a81548173ffffffffffffffffffffffffffffffffffffffff021916908373ffffffffffffffffffffffffffffffffffffffff160217905550611442806100656000396000f3fe608060405234801561001057600080fd5b506004361061009e5760003560e01c80638da5cb5b116100665780638da5cb5b1461016c578063a850c1801461018a578063ab996317146101a6578063fea43b79146101c4578063feed14df146101f55761009e565b80630ed099d3146100a357806327c3e4d1146100d357806361fc813e14610103578063817dbe9f1461011f5780638a7dc32b14610150575b600080fd5b6100bd60048036038101906100b89190610c07565b610213565b6040516100ca9190610c56565b60405180910390f35b6100ed60048036038101906100e89190610c07565b610271565b6040516100fa9190610c8c565b60405180910390f35b61011d60048036038101906101189190610cd3565b6102dc565b005b61013960048036038101906101349190610d13565b61061d565b604051610147929190610de8565b60405180910390f35b61016a60048036038101906101659190610f4d565b6106e9565b005b6101746107c5565b6040516101819190610f96565b60405180910390f35b6101a4600480360381019061019f9190610c07565b6107e9565b005b6101ae610988565b6040516101bb9190610c56565b60405180910390f35b6101de60048036038101906101d99190610fb1565b61098e565b6040516101ec929190611004565b60405180910390f35b6101fd610ab2565b60405161020a9190610c56565b60405180910390f35b60006001600084815260200190815260200160002060040160008373ffffffffffffffffffffffffffffffffffffffff1673ffffffffffffffffffffffffffffffffffffffff16815260200190815260200160002054905092915050565b60006001600084815260200190815260200160002060020160008373ffffffffffffffffffffffffffffffffffffffff1673ffffffffffffffffffffffffffffffffffffffff16815260200190815260200160002060009054906101000a900460ff16905092915050565b6000821180156102ee57506002548211155b61032d576040517f08c379a000000000000000000000000000000000000000000000000000000000815260040161032490611079565b60405180910390fd5b6001600083815260200190815260200160002060020160003373ffffffffffffffffffffffffffffffffffffffff1673ffffffffffffffffffffffffffffffffffffffff16815260200190815260200160002060009054906101000a900460ff166103cd576040517f08c379a00000000000000000000000000000000000000000000000000000000081526004016103c49061110b565b60405180910390fd5b60646001600084815260200190815260200160002060040160003373ffffffffffffffffffffffffffffffffffffffff1673ffffffffffffffffffffffffffffffffffffffff1681526020019081526020016000205410610463576040517f08c379a000000000000000000000000000000000000000000000000000000000815260040161045a90611177565b60405180910390fd5b60405180604001604052808215158152602001428152506001600084815260200190815260200160002060030160003373ffffffffffffffffffffffffffffffffffffffff1673ffffffffffffffffffffffffffffffffffffffff16815260200190815260200160002060006001600086815260200190815260200160002060040160003373ffffffffffffffffffffffffffffffffffffffff1673ffffffffffffffffffffffffffffffffffffffff16815260200190815260200160002054815260200190815260200160002060008201518160000160006101000a81548160ff021916908315150217905550602082015181600101559050506001600083815260200190815260200160002060040160003373ffffffffffffffffffffffffffffffffffffffff1673ffffffffffffffffffffffffffffffffffffffff16815260200190815260200160002060008154809291906105c2906111c6565b91905055503373ffffffffffffffffffffffffffffffffffffffff167fa35b9f0b85df0ed76d7c5c596c4d723b414714711906f27a7b390e2cfd097ce68383426040516106119392919061120f565b60405180910390a25050565b600160205280600052604060002060009150905080600001805461064090611275565b80601f016020809104026020016040519081016040528092919081815260200182805461066c90611275565b80156106b95780601f1061068e576101008083540402835291602001916106b9565b820191906000526020600020905b81548152906001019060200180831161069c57829003601f168201915b5050505050908060010160009054906101000a900473ffffffffffffffffffffffffffffffffffffffff16905082565b600260008154809291906106fc906111c6565b919050555080600160006002548152602001908152602001600020600001908051906020019061072d929190610abc565b503360016000600254815260200190815260200160002060010160006101000a81548173ffffffffffffffffffffffffffffffffffffffff021916908373ffffffffffffffffffffffffffffffffffffffff1602179055507fc3ae16060c7848ac9fda075de776290091a5c18dc2937b3673f215fe8fad3c0d60025482336040516107ba939291906112a7565b60405180910390a150565b60008054906101000a900473ffffffffffffffffffffffffffffffffffffffff1681565b816000811180156107fc57506002548111155b61083b576040517f08c379a000000000000000000000000000000000000000000000000000000000815260040161083290611079565b60405180910390fd5b6001600082815260200190815260200160002060010160009054906101000a900473ffffffffffffffffffffffffffffffffffffffff1673ffffffffffffffffffffffffffffffffffffffff163373ffffffffffffffffffffffffffffffffffffffff16146108df576040517f08c379a00000000000000000000000000000000000000000000000000000000081526004016108d690611357565b60405180910390fd5b600180600085815260200190815260200160002060020160008473ffffffffffffffffffffffffffffffffffffffff1673ffffffffffffffffffffffffffffffffffffffff16815260200190815260200160002060006101000a81548160ff0219169083151502179055507fe1cacc7bf04bbbc4acbefdd919648dda3da5378dfdd304a8bf8479ac92cb77e0838360405161097b929190611377565b60405180910390a1505050565b60025481565b6000806001600086815260200190815260200160002060040160008573ffffffffffffffffffffffffffffffffffffffff1673ffffffffffffffffffffffffffffffffffffffff168152602001908152602001600020548310610a26576040517f08c379a0000000000000000000000000000000000000000000000000000000008152600401610a1d906113ec565b60405180910390fd5b60006001600087815260200190815260200160002060030160008673ffffffffffffffffffffffffffffffffffffffff1673ffffffffffffffffffffffffffffffffffffffff168152602001908152602001600020600085815260200190815260200160002090508060000160009054906101000a900460ff1681600101549250925050935093915050565b6000600254905090565b828054610ac890611275565b90600052602060002090601f016020900481019282610aea5760008555610b31565b82601f10610b0357805160ff1916838001178555610b31565b82800160010185558215610b31579182015b82811115610b30578251825591602001919060010190610b15565b5b509050610b3e9190610b42565b5090565b5b80821115610b5b576000816000905550600101610b43565b5090565b6000604051905090565b600080fd5b600080fd5b6000819050919050565b610b8681610b73565b8114610b9157600080fd5b50565b600081359050610ba381610b7d565b92915050565b600073ffffffffffffffffffffffffffffffffffffffff82169050919050565b6000610bd482610ba9565b9050919050565b610be481610bc9565b8114610bef57600080fd5b50565b600081359050610c0181610bdb565b92915050565b60008060408385031215610c1e57610c1d610b69565b5b6000610c2c85828601610b94565b9250506020610c3d85828601610bf2565b9150509250929050565b610c5081610b73565b82525050565b6000602082019050610c6b6000830184610c47565b92915050565b60008115159050919050565b610c8681610c71565b82525050565b6000602082019050610ca16000830184610c7d565b92915050565b610cb081610c71565b8114610cbb57600080fd5b50565b600081359050610ccd81610ca7565b92915050565b60008060408385031215610cea57610ce9610b69565b5b6000610cf885828601610b94565b9250506020610d0985828601610cbe565b9150509250929050565b600060208284031215610d2957610d28610b69565b5b6000610d3784828501610b94565b91505092915050565b600081519050919050565b600082825260208201905092915050565b60005b83811015610d7a578082015181840152602081019050610d5f565b83811115610d89576000848401525b50505050565b6000601f19601f8301169050919050565b6000610dab82610d40565b610db58185610d4b565b9350610dc5818560208601610d5c565b610dce81610d8f565b840191505092915050565b610de281610bc9565b82525050565b60006040820190508181036000830152610e028185610da0565b9050610e116020830184610dd9565b9392505050565b600080fd5b600080fd5b7f4e487b7100000000000000000000000000000000000000000000000000000000600052604160045260246000fd5b610e5a82610d8f565b810181811067ffffffffffffffff82111715610e7957610e78610e22565b5b80604052505050565b6000610e8c610b5f565b9050610e988282610e51565b919050565b600067ffffffffffffffff821115610eb857610eb7610e22565b5b610ec182610d8f565b9050602081019050919050565b82818337600083830152505050565b6000610ef0610eeb84610e9d565b610e82565b905082815260208101848484011115610f0c57610f0b610e1d565b5b610f17848285610ece565b509392505050565b600082601f830112610f3457610f33610e18565b5b8135610f44848260208601610edd565b91505092915050565b600060208284031215610f6357610f62610b69565b5b600082013567ffffffffffffffff811115610f8157610f80610b6e565b5b610f8d84828501610f1f565b91505092915050565b6000602082019050610fab6000830184610dd9565b92915050565b600080600060608486031215610fca57610fc9610b69565b5b6000610fd886828701610b94565b9350506020610fe986828701610bf2565b9250506040610ffa86828701610b94565b9150509250925092565b60006040820190506110196000830185610c7d565b6110266020830184610c47565b9392505050565b7f496e76616c696420636c61737320494400000000000000000000000000000000600082015250565b6000611063601083610d4b565b915061106e8261102d565b602082019050919050565b6000602082019050818103600083015261109281611056565b9050919050565b7f596f7520617265206e6f74207265676973746572656420696e2074686973206360008201527f6c61737300000000000000000000000000000000000000000000000000000000602082015250565b60006110f5602483610d4b565b915061110082611099565b604082019050919050565b60006020820190508181036000830152611124816110e8565b9050919050565b7f546f6f206d616e7920617474656e64616e6365207265636f7264730000000000600082015250565b6000611161601b83610d4b565b915061116c8261112b565b602082019050919050565b6000602082019050818103600083015261119081611154565b9050919050565b7f4e487b7100000000000000000000000000000000000000000000000000000000600052601160045260246000fd5b60006111d182610b73565b91507fffffffffffffffffffffffffffffffffffffffffffffffffffffffffffffffff82141561120457611203611197565b5b600182019050919050565b60006060820190506112246000830186610c47565b6112316020830185610c7d565b61123e6040830184610c47565b949350505050565b7f4e487b7100000000000000000000000000000000000000000000000000000000600052602260045260246000fd5b6000600282049050600182168061128d57607f821691505b602082108114156112a1576112a0611246565b5b50919050565b60006060820190506112bc6000830186610c47565b81810360208301526112ce8185610da0565b90506112dd6040830184610dd9565b949350505050565b7f4f6e6c7920746561636865722063616e206d6f64696679207468697320636c6160008201527f7373000000000000000000000000000000000000000000000000000000000000602082015250565b6000611341602283610d4b565b915061134c826112e5565b604082019050919050565b6000602082019050818103600083015261137081611334565b9050919050565b600060408201905061138c6000830185610c47565b6113996020830184610dd9565b9392505050565b7f496e646578206f7574206f6620626f756e647300000000000000000000000000600082015250565b60006113d6601383610d4b565b91506113e1826113a0565b602082019050919050565b60006020820190508181036000830152611405816113c9565b905091905056fea26469706673582212209facab2b6b88b69d9f5c377fdb59acd3e6029024df1c75ad5f4d2c9335a8e26864736f6c63430008080033",
  "immutableReferences": {},
  "source": "// SPDX-License-Identifier: MIT\r\npragma solidity ^0.8.8;\r\n\r\ncontract AttendanceSystem {\r\n    address public owner;\r\n\r\n    struct Attendance {\r\n        bool isPresent;\r\n        uint256 timestamp;\r\n    }\r\n\r\n    struct Class {\r\n        string name;\r\n        address teacher;\r\n        mapping(address => bool) students; // Mapping  kim tra sinh vin c trong lp khng\r\n        mapping(address => mapping(uint256 => Attendance)) attendanceRecords;\r\n        mapping(address => uint256) attendanceCount;\r\n    }\r\n\r\n    mapping(uint256 => Class) public classes;\r\n    uint256 public classCount = 0;\r\n\r\n    event ClassCreated(uint256 classId, string name, address teacher);\r\n    event StudentAdded(uint256 classId, address student);\r\n    event AttendanceMarked(uint256 classId, address indexed user, bool isPresent, uint256 timestamp);\r\n\r\n    constructor() {\r\n        owner = msg.sender;\r\n    }\r\n\r\n    modifier onlyTeacher(uint256 classId) {\r\n        require(classId > 0 && classId <= classCount, \"Invalid class ID\");\r\n        require(msg.sender == classes[classId].teacher, \"Only teacher can modify this class\");\r\n        _;\r\n    }\r\n\r\n    function createClass(string memory _name) public {\r\n        classCount++;\r\n        classes[classCount].name = _name;\r\n        classes[classCount].teacher = msg.sender;\r\n        emit ClassCreated(classCount, _name, msg.sender);\r\n    }\r\n\r\n    function addStudent(uint256 _classId, address _student) public onlyTeacher(_classId) {\r\n        classes[_classId].students[_student] = true;\r\n        emit StudentAdded(_classId, _student);\r\n    }\r\n\r\n    function markAttendance(uint256 _classId, bool _isPresent) public {\r\n        require(_classId > 0 && _classId <= classCount, \"Invalid class ID\");\r\n        require(classes[_classId].students[msg.sender], \"You are not registered in this class\");\r\n        require(classes[_classId].attendanceCount[msg.sender] < 100, \"Too many attendance records\");\r\n\r\n        classes[_classId].attendanceRecords[msg.sender][classes[_classId].attendanceCount[msg.sender]] = Attendance(_isPresent, block.timestamp);\r\n        classes[_classId].attendanceCount[msg.sender]++;\r\n\r\n        emit AttendanceMarked(_classId, msg.sender, _isPresent, block.timestamp);\r\n    }\r\n\r\n    function getAttendanceCount(uint256 _classId, address _student) public view returns (uint256) {\r\n        return classes[_classId].attendanceCount[_student];\r\n    }\r\n\r\n    function getAttendanceRecord(uint256 _classId, address _student, uint256 index) public view returns (bool, uint256) {\r\n        require(index < classes[_classId].attendanceCount[_student], \"Index out of bounds\");\r\n        Attendance storage record = classes[_classId].attendanceRecords[_student][index];\r\n        return (record.isPresent, record.timestamp);\r\n    }\r\n    \r\n    function isStudentInClass(uint256 _classId, address _student) public view returns (bool) {\r\n        return classes[_classId].students[_student];\r\n    }\r\n\r\n    function getTotalClasses() public view returns (uint256) {\r\n        return classCount;\r\n    }\r\n}\r\n",
  "sourcePath": "D:\\attendance-system (1)\\contracts\\AttendanceSystem.sol",
  "compiler": {
    "name": "solc",
    "version": "0.8.8+commit.dddeac2f.Emscripten.clang"
  },
  "schemaVersion": "3.4.16",
  "updatedAt": "2025-02-27T13:20:40.481Z",
  "networkType": "ethereum",
  "devdoc": {
    "kind": "dev",
    "methods": {},
    "version": 1
  },
  "userdoc": {
    "kind": "user",
    "methods": {},
    "version": 1
  }
}